:100000000C9435000C945D000C945D000C945D0024
:100010000C945D000C945D000C945D000C94240124
:100020000C945D000C945D000C945D000C945D00DC
:100030000C945D000C94FF000C945D000C945D002A
:100040000C9488010C945D000C94AF030C94E103B4
:100050000C945D000C945D000C945D000C945D00AC
:100060000C945D000C945D00110411241FBECFEFB1
:10007000D8E0DEBFCDBF11E0A0E0B1E0ECE8FDE0EC
:1000800002C005900D92A234B107D9F721E0A2E495
:10009000B1E001C01D92A53FB207E1F710E0CAE64A
:1000A000D0E004C02297FE010E94C006C836D107E6
:1000B000C9F70E9455040C94C4060C94000026E075
:1000C00040E052EC61E070E088E591E00E944D0371
:1000D00060E071E088E591E00C94A804CF93DF9391
:1000E00010924A019093430180934201109245017E
:1000F000109244011092460110924701109248015B
:100100001092490110928000E1E8F0E01082C0EB0B
:10011000D0E01882A1EBB0E01C9281E080936F00E8
:1001200082E088839CE79093B300809370001092E4
:100130008500109284001092B20083BD85E08C93FC
:1001400087E08083DF91CF910895CF92DF92EF9285
:10015000FF92CF93DF93D4B5C5B514BC15BC84EF23
:1001600091E00E946E0080914A018823E1F3609142
:100170004B0170914C0180914D0190914E010E9474
:10018000AB0520E030E04AE754E40E9439066B01F9
:100190007C01609142017091430180E090E00E94F7
:1001A000AB059B01AC01C701B6010E9417056B01AD
:1001B0007C0162E171E088E591E00E94A204C70140
:1001C000B6010E947F05AB01BC012AE030E088E562
:1001D00091E00E9409056EE171E088E591E00E94DE
:1001E000A804D4BDC5BD68EC70E080E090E0DF916C
:1001F000CF91FF90EF90DF90CF900C94F5011F927C
:100200000F920FB60F9211248F939F93AF93BF93CA
:100210008091460190914701A0914801B091490118
:100220000196A11DB11D8093460190934701A093B3
:100230004801B0934901BF91AF919F918F910F9069
:100240000FBE0F901F9018951F920F920FB60F922E
:1002500011242F933F934F935F936F937F938F93CB
:100260009F93AF93BF9340918400509185008091FC
:10027000460190914701A0914801B0914901209118
:100280004401309145012F5F3F4F3093450120934A
:10029000440160914201709143012617370748F1EC
:1002A000B09B04C04F3F510501F1F8F0109280005F
:1002B000109281001092B0001092B10010926F0065
:1002C00010927000DC0199278827840F951FA11DCB
:1002D000B11D80934B0190934C01A0934D01B093BD
:1002E0004E0181E080934A0104C00196A11DB11D19
:1002F000DDCFBF91AF919F918F917F916F915F9172
:100300004F913F912F910F900FBE0F901F90189516
:100310001F920F920FB60F9211242F933F938F933A
:100320009F93AF93BF938091500190915101A09101
:100330005201B091530130914F0123E0230F2D372B
:1003400020F40196A11DB11D05C026E8230F0296D9
:10035000A11DB11D20934F01809350019093510135
:10036000A0935201B0935301809154019091550193
:10037000A0915601B09157010196A11DB11D809326
:10038000540190935501A0935601B0935701BF912A
:10039000AF919F918F913F912F910F900FBE0F9032
:1003A0001F9018953FB7F894809154019091550192
:1003B000A0915601B091570126B5A89B05C02F3FCB
:1003C00019F00196A11DB11D3FBF6627782F892F17
:1003D0009A2F620F711D811D911D42E0660F771FDC
:1003E000881F991F4A95D1F708958F929F92AF92D7
:1003F000BF92CF92DF92EF92FF926B017C010E943D
:10040000D2014B015C01C114D104E104F104F1F00B
:100410000E9416050E94D201681979098A099B0970
:10042000683E73408105910570F321E0C21AD1083E
:10043000E108F10888EE880E83E0981EA11CB11C2B
:10044000C114D104E104F10429F7DDCFFF90EF904E
:10045000DF90CF90BF90AF909F908F900895789449
:1004600084B5826084BD84B5816084BD85B58260B9
:1004700085BD85B5816085BDEEE6F0E08081816057
:100480008083E1E8F0E01082808182608083808157
:1004900081608083E0E8F0E0808181608083E1EB2F
:1004A000F0E0808184608083E0EBF0E08081816017
:1004B0008083EAE7F0E080818460808380818260CD
:1004C00080838081816080838081806880831092B6
:1004D000C1000895FC01818D228D90E0805C9F4FCA
:1004E000821B91098F7399270895FC01918D828D4C
:1004F000981731F0828DE80FF11D858D90E00895F9
:100500008FEF9FEF0895FC01918D828D981761F018
:10051000828DDF01A80FB11D5D968C91928D9F5F3A
:100520009F73928F90E008958FEF9FEF089587E07B
:1005300094E0892B49F080E090E0892B29F00E941B
:10054000070481110C9400000895FC01848DDF01E3
:10055000A80FB11DA35ABF4F2C91848D90E0019636
:100560008F739927848FA689B7892C93A089B18925
:100570008C9180648C93938D848D981306C002882F
:10058000F389E02D80818F7D80830895CF93DF9361
:10059000EC01888D8823C9F0EA89FB89808185FD7B
:1005A00005C0A889B9898C9186FD0FC00FB607FCDC
:1005B000F5CF808185FFF2CFA889B9898C9185FF1D
:1005C000EDCFCE010E94A502E7CFDF91CF91089534
:1005D000CF92DF92FF920F931F93CF93DF931F92DF
:1005E000CDB7DEB76C0181E0D60158968C93589751
:1005F0005B969C915B975C968C915C97981307C077
:100600005096ED91FC915197808185FD2EC0F601A9
:10061000038D10E00F5F1F4F0F731127F02EF601AF
:10062000848DF81211C00FB607FCF9CFD601509691
:10063000ED91FC915197808185FFF1CFC6016983CF
:100640000E94A5026981EBCF838DE80FF11DE35A6B
:10065000FF4F6083D6015B960C935B975296ED91AA
:10066000FC915397808180620CC0D6015696ED9123
:10067000FC91579760835096ED91FC915197808142
:100680008064808381E090E00F90DF91CF911F9193
:100690000F91FF90DF90CF900895BF92CF92DF929D
:1006A000EF92FF92CF93DF93EC016A017B01B22EB0
:1006B000E889F98982E08083411581EE5807610558
:1006C0007105A1F060E079E08DE390E0A70196016B
:1006D0000E949C06215031094109510956954795C0
:1006E00037952795211580E1380798F0E889F98931
:1006F000108260E874E88EE190E0A70196010E9404
:100700009C06215031094109510956954795379565
:100710002795EC85FD853083EE85FF852083188E37
:10072000EC89FD89B082EA89FB89808180618083C0
:10073000EA89FB89808188608083EA89FB898081DE
:1007400080688083EA89FB8980818F7D8083DF9147
:10075000CF91FF90EF90DF90CF90BF9008951F92C0
:100760000F920FB60F9211242F938F939F93EF93B5
:10077000FF93E0916801F09169018081E0916E0141
:10078000F0916F0182FD12C09081809171018F5FA5
:100790008F7320917201821751F0E0917101F0E0A6
:1007A000E85AFE4F958F8093710101C08081FF91BF
:1007B000EF919F918F912F910F900FBE0F901F90EF
:1007C00018951F920F920FB60F9211242F933F93FB
:1007D0004F935F936F937F938F939F93AF93BF9349
:1007E000EF93FF9388E591E00E94A502FF91EF91BE
:1007F000BF91AF919F918F917F916F915F914F9139
:100800003F912F910F900FBE0F901F90189588E584
:1008100091E00E946A0221E0892B09F420E0822FF6
:10082000089510925B0110925A0188EE93E0A0E0C7
:10083000B0E080935C0190935D01A0935E01B09362
:100840005F0187E291E0909359018093580185EC14
:1008500090E0909365018093640184EC90E0909324
:1008600067018093660180EC90E09093690180932A
:10087000680181EC90E090936B0180936A0182ECB7
:1008800090E090936D0180936C0186EC90E09093E2
:100890006F0180936E01109271011092720110929B
:1008A000730110927401089508950E942F020E940E
:1008B00054040E945F00C7E9D2E00E94A50020977F
:1008C000E1F30E949702F9CFCF92DF92EF92FF926D
:1008D0000F931F93CF93DF937C016A01EB0100E03C
:1008E00010E00C151D0571F06991D701ED91FC9197
:1008F0000190F081E02DC7010995892B19F00F5F58
:100900001F4FEFCFC801DF91CF911F910F91FF9043
:10091000EF90DF90CF9008956115710581F0DB01B4
:100920000D900020E9F7AD0141505109461B570BCE
:10093000DC01ED91FC910280F381E02D099480E0CF
:1009400090E008950C948C0463E371E00C948C04A3
:100950000F931F93CF93DF93EC010E948C048C01C3
:10096000CE010E94A404800F911FDF91CF911F91AF
:100970000F9108958F929F92AF92BF92DF92EF9264
:10098000FF920F931F93CF93DF93CDB7DEB7A1975D
:100990000FB6F894DEBF0FBECDBF7C01F42FD52E6D
:1009A000CB0119A2223008F42AE08E010F5D1F4FFF
:1009B000822E912CA12CB12C6F2F7D2DA50194019D
:1009C0000E949C06F22FD32ECA01015011096A30F1
:1009D00014F4E0E301C0E7E3E60FD801EC93232B26
:1009E000242B252B49F7B801C7010E948C04A1963E
:1009F0000FB6F894DEBF0FBECDBFDF91CF911F9130
:100A00000F91FF90EF90DF90BF90AF909F908F90ED
:100A100008952115310541F4DC01ED91FC9101901F
:100A2000F081E02D642F09940C94BA0408950CD041
:100A3000E6C0DED040F0D5D030F021F45F3F19F0B1
:100A4000C7C0511110C1CAC0EBD098F39923C9F3A4
:100A50005523B1F3951B550BBB27AA2762177307C4
:100A6000840738F09F5F5F4F220F331F441FAA1F78
:100A7000A9F333D00E2E3AF0E0E830D09150504038
:100A8000E695001CCAF729D0FE2F27D0660F771FE6
:100A9000881FBB1F261737074807AB07B0E809F0C8
:100AA000BB0B802DBF01FF2793585F4F2AF09E3F5D
:100AB000510568F08DC0D7C05F3FECF3983EDCF382
:100AC000869577956795B795F7959F5FC9F7880FD6
:100AD000911D9695879597F90895E1E0660F771F28
:100AE000881FBB1F621773078407BA0720F0621BB9
:100AF000730B840BBA0BEE1F88F7E095089598D01E
:100B000088F09F5790F0B92F9927B751A0F0D1F0F6
:100B1000660F771F881F991F1AF0BA95C9F712C080
:100B2000B13081F09FD0B1E008959CC0672F782F3D
:100B30008827B85F39F0B93FCCF3869577956795EC
:100B4000B395D9F73EF490958095709561957F4F58
:100B50008F4F9F4F0895E89409C097FB3EF49095FE
:100B60008095709561957F4F8F4F9F4F9923A9F086
:100B7000F92F96E9BB279395F69587957795679515
:100B8000B795F111F8CFFAF4BB0F11F460FF1BC059
:100B90006F5F7F4F8F4F9F4F16C0882311F096E9EC
:100BA00011C0772321F09EE8872F762F05C066239A
:100BB00071F096E8862F70E060E02AF09A95660F53
:100BC000771F881FDAF7880F9695879597F908950C
:100BD00097F99F6780E870E060E008959FEF80ECF0
:100BE000089500240A941616170618060906089593
:100BF00000240A9412161306140605060895092EF9
:100C00000394000C11F4882352F0BB0F40F4BF2B67
:100C100011F460FF04C06F5F7F4F8F4F9F4F0895A7
:100C200057FD9058440F551F59F05F3F71F047959D
:100C3000880F97FB991F61F09F3F79F08795089582
:100C4000121613061406551FF2CF4695F1DF08C0A1
:100C5000161617061806991FF1CF869571056105BE
:100C600008940895E894BB2766277727CB0197F966
:100C700008950BD0C4CFB5DF28F0BADF18F0952364
:100C800009F0A6CFABCF1124EECFCADFA0F3959F1A
:100C9000D1F3950F50E0551F629FF001729FBB2763
:100CA000F00DB11D639FAA27F00DB11DAA1F649F0F
:100CB0006627B00DA11D661F829F2227B00DA11DC2
:100CC000621F739FB00DA11D621F839FA00D611D48
:100CD000221F749F3327A00D611D231F849F600D69
:100CE000211D822F762F6A2F11249F5750408AF0A2
:100CF000E1F088234AF0EE0FFF1FBB1F661F771F2E
:100D0000881F91505040A9F79E3F510570F060CF69
:100D1000AACF5F3FECF3983EDCF386957795679515
:100D2000B795F795E7959F5FC1F7FE2B880F911D4B
:100D30009695879597F90895A1E21A2EAA1BBB1BD9
:100D4000FD010DC0AA1FBB1FEE1FFF1FA217B30797
:100D5000E407F50720F0A21BB30BE40BF50B661FAD
:100D6000771F881F991F1A9469F760957095809571
:100D700090959B01AC01BD01CF010895EE0FFF1FBF
:0C0D80000590F491E02D0994F894FFCF49
:100D8C004672657175656E637920436F756E746517
:100D9C0072004672657175656E63793A2000204861
:100DAC007A2E0000000000E80264046A02830275D7
:100DBC0002C6020D0A006E616E00696E66006F76E7
:020DCC006600BF
:00000001FF
